:100000000C941F010C9400000C9400000C94000050
:100010000C9400000C9400000C9400000C94000060
:100020000C9400000C9400000C9400000C94000050
:100030000C9400000C9400000C9400000C94000040
:100040000C9400000C9400000C9400000C94000030
:100050000C9400001027E80364000A00010000105F
:1000600000011000010000000000000031323334B4
:100070003132333435363738392A302357656C639B
:100080006F6D6520746F2074686520736D61727484
:1000900020686F75736500456E74657220706173BA
:1000A00073203A0050617373776F72642069732014
:1000B000636F727265637421210050617373776F8F
:1000C000726420496E636F7272656374212100252A
:1000D0006300476F6F6462796500456E74657220D6
:1000E00076616C696420627574746F6E21210031D1
:1000F0002D4C6F674F75742020322D545600332DD0
:100100004C69676874732020342D446F6F727300DC
:10011000312D726F6F6D312020322D726F6F6D3205
:1001200000332D6D61696E2020342D6261636B0098
:1001300054563A00526F6F6D206F6E65206C696780
:10014000687400526F6F6D2032206C6967687400AC
:100150004D61696E20726F6F6D206C696768747392
:1001600000446F6F7273206C6F636B3A00312D6FB8
:100170006E20322D6F666620332D72657400446FD9
:100180006F72733A000080C0060008006600040029
:10019000FA036C000C00160470001B0060027C0067
:1001A0000D007B02970016008802A40015009E0235
:1001B000BA000D00B30297000800C002D2001B0075
:1001C000C8027C001500E302DA001500F802DA002C
:1001D0000F000D03EF0012001C03FE0011002E03A0
:1001E00010010F003F03210104004E0330010F00F6
:1001F000520334010D006103430111006E035001ED
:100200000C007F03610111008B036D0115009C033D
:10021000DA000400B10330010F00B50334010D0012
:10022000C40343011100D10350010700E2037E0122
:100230001100E9036D010200220486010000F89418
:10024000EE27ECBBF1E0FBBFEBBFE5BF8DE0A2E02A
:10025000BB27ED938A95E9F780E098E0A0E6ED935F
:100260000197E9F7E8E8F1E085919591009761F051
:10027000A591B59105901590BF01F00105900D92E3
:100280000197E1F7FB01F0CFEFE5EDBFE8E0EEBF4E
:10029000C0E6D2E00C944C017CD0A0E10E94D603D1
:1002A000E3E8E6B9E0E0EABBEFEFE7BBA0E6B2E0E7
:1002B0000E94C503CC24DD240E94D405EAE2EA159D
:1002C00009F065C00E949703ABE7B2E00E94C50346
:1002D0000E94DA0509F45BC00E94D405AA2009F443
:1002E00055C0E3E2EA15B9F48BD0309769F00E946B
:1002F0009703A8E8B2E00E94DF0551D10E94DA0519
:1003000011F0B7D0FBCF06C00E949703AEE9B2E070
:100310000E94C5033BC0EAE2EA1541F482D00E9484
:100320009703A3EBB2E00E94C50330C0E091040440
:100330000E94E505E6E0F4E0FA93EA93EFECF0E0E2
:10034000FA93EA93EA2DFF27662777270E949506FE
:1003500084E00E9473052896A6E0B4E00E94C503DD
:10036000E4E0F0E08E169F066CF4F401E150FC4FDF
:10037000A082F40131964F01AFEFB3E0A80DB91D93
:10038000E0E0EC93A4E0B4E00E94E905A1CF92CFB5
:10039000FFCFEFE0E1BBEFEFE2BB0895442455242B
:1003A000E4E0F0E04E165F064CF5E42DA1E00E947B
:1003B0004E06E095E2BB8DE08A95F1F7662477243E
:1003C000E3E0F0E06E167F06ACF40E94EF0571F4F6
:1003D0000E94EF05E9F3F201A3E0B0E00E945F069E
:1003E000EA5EFB4FE60DF71DE0810895F3013196BB
:1003F0003F01E6CFF20131962F01D2CFE0E0089520
:10040000EFEFF3E0FA93EA93AAEFB3E00E94A705B7
:10041000E03019F4E1E0F0E00895E0E0F0E0089564
:10042000089588249924E0E0E0930404E09305040F
:10043000E093FF030895E0E4E7B98BE18A95F1F7D3
:10044000369A349BFECFE3E8E6B98BE18A95F1F763
:10045000E4B1F5B1BE2EAB2DB0E0E2E0F0E00E94D9
:100460007A06BE2EEEE1EB1510F4C09A01C0C098DA
:1004700008950E94D405AA2009F44EC00E94FC05EC
:10048000C1F455D1E8B3E170E8BBA0ECB2E07DD196
:10049000A8ECB0E00E943C064AD1A8ECB2E075D1CD
:1004A000A5E0B0E00E943C06BCDFE1E0F0E06F01B7
:1004B00033C0E233A0E0FA0761F4E0E0F0E0FA9341
:1004C000EA93EDEFF0E0FA93EA93A2E0B0E07CD09B
:1004D00022C0E333A0E0FA0749F46BD00E94DA05AA
:1004E00011F01BD0FBCFCC24DD2415C0E433A0E0F9
:1004F000FA0761F4E4E0F0E0FA93EA93EFEBF0E05E
:10050000FA93EA93A0E4B0E05FD005C010D1A3EE67
:10051000B2E00E94DF0543D008950E94D405AA20CE
:10052000E9F10E94FC0561F4E1E0F0E0FA93EA935E
:10053000EBEFF0E0FA93EA93A4E0B0E045D02DC0F1
:10054000E233A0E0FA0761F4E2E0F0E0FA93EA9324
:10055000E7EFF0E0FA93EA93A8E0B0E035D01DC0F1
:10056000E333A0E0FA0761F4E3E0F0E0FA93EA9302
:10057000EFECF0E0FA93EA93A0E3B0E025D00DC0F1
:10058000E433A0E0FA0721F4E1E0F0E06F0106C0F7
:10059000CED0A8EFB2E00E94DF050BD00895C7D0FF
:1005A000ADE0B3E0F2D0E0E00E94E505ACE1B3E0FD
:1005B00009C0BDD0AEE2B3E0E8D0E0E00E94E505BE
:1005C000AFE3B3E0E2D00895BA93AA93B0D0EC8140
:1005D000FD81309719F4AEE4B3E01BC0AC81BD815E
:1005E000119719F4A2E5B3E014C0AC81BD81129754
:1005F00019F4A1E6B3E00DC0AC81BD81139719F4E5
:10060000AEE6B3E006C0AC81BD81149719F4AFE744
:10061000B3E0BBD0E0E00E94E505ABE8B3E0B5D0C5
:100620000E94DA0509F44EC00E94D405AA2009F4FC
:1006300048C00E94FC0529F4E8B3A881EA2BE8BB76
:1006400040C0E233A0E0FA0729F4E8B3AA81EA2324
:10065000E8BB37C0E333A0E0FA0721F4E1E0F0E0C3
:100660006F012FC064D0ACE9B3E00E94DF055FD01A
:10067000EC81FD81309719F4A1EBB3E01BC0AC8194
:10068000BD81119719F4A5EBB3E014C0AC81BD8115
:10069000129719F4A4ECB3E00DC0AC81BD8113979F
:1006A00019F4A1EDB3E006C0AC81BD81149719F433
:1006B000A2EEB3E06AD0E0E00E94E505A9EEB3E067
:1006C00064D0AECFCC24DD2426960895AA93E5B35A
:1006D000EF70AE2FE881E07FEA2BE5BB8DE08A95D5
:1006E000F1F7AA9A8DE08A95F1F7AA988DE08A959C
:1006F000F1F789C0AA93A881E9DFE881E295E88350
:10070000A881E4DF85E88A95F1F77DC0AA93E881A6
:10071000F0E0EE5DFB4FE081A981AE0FEBDFE981F8
:10072000E0932604E881E093270422960895A2E04E
:100730000E940206ACE0DEDFA1E00E940206E0E0DB
:10074000E0932704E09326040895AA93A881AA3091
:1007500031F0E0912804A0912604AE1760F0E0E0AB
:10076000EA93A0912704AF5FA0932704CFDFA8816D
:10077000AA3009F448C0E0912604EF5FE093260414
:10078000A89AA881B7DFA8983EC0BA93AA931A93F3
:10079000A981BA81ED91A983BA831E2FE03019F0A7
:1007A000A12FD3DFF5CF188123960895AA93E4B340
:1007B000E06FE4BBA29AA09AA19AAA98A898A998D7
:1007C000E881E0932804E058E0932404E881E054B1
:1007D000E0932504A4E1B0E00E943C060E940806D4
:1007E0000E9408060E940806A0E270DF88EC90E0F4
:1007F0000197F1F7A8E27EDFA4E07CDFA5E87ADFCD
:10080000A6E078DF94DF21960895BA93AA931A930D
:100810000A93AA81BB8112960E948D06309729F116
:10082000AA81BB8114960E948D068F01309761F0DA
:100830000230E0E01E0780F0F80131978F01AA81B5
:10084000BB811496ED93FC93AA81BB8112960E9402
:10085000E9053197AC81A083AA81BB810E948D06F6
:10086000FF2312F00E94E90506C0AA81BB81EFEFC9
:10087000FFEFED93FC931981088125960895BA93B3
:10088000AA9326970E949A0610E0AC85BD85E0E009
:10089000F0E0ED93FC93EA89FB893196EA8BFB8BC0
:1008A0003197E4912E2FE03009F415C1E12FE030AB
:1008B00039F4253211F411E002C00E9410060AC179
:1008C000E130A9F4253219F40E94100602C112E0A9
:1008D00040E000E02D3211F401E0FCC02B3211F4B5
:1008E0004BE2F8C0203211F440E2F4C002C0E23022
:1008F00039F450E013E0203311F40068EBC003C07A
:10090000E33009F0E7C0203310F02A3308F007C0C5
:10091000AAE05A9F502DE22FE0535E0FDBC0E22F7A
:10092000E33649F40E941706E889F989A481AA935D
:100930000E941D06CEC0E33741F40E9417060E94B4
:1009400023060E94BB051E2F0AC0E03761F40E94F7
:1009500017060E9423060E94C7051E2F086002602A
:100960000F7730E034C0E43611F0E93611F404605A
:1009700002C0E53731F4E4E5F0E0EE83FF8315E0F3
:100980000CC0E83511F4086003C0E83709F0A1C0D5
:10099000EEE5F0E0EE83FF8314E002FF14C00E9456
:1009A00017060E942D06AB85AA233AF4EA85FB853B
:1009B0000E944A06EA87FB874DE2403011F01F5F34
:1009C00001C00B7F04C00E9417060E942D0600FD87
:1009D00011C0151778F407FF08C002FF04C00B7F91
:1009E000242F115001C020E301C020E20E94100614
:1009F0005150EFCF312F01FF17C03030A1F003FF6E
:100A000006C0EE81FF812591EE83FF8305C0AE8194
:100A1000BF812D91AE83BF830E941006503009F034
:100A200051503150EACF4BC020E3EE81FF810E944C
:100A30009106E887F987EE81FF813296EE83FF8386
:100A4000E885F985AA85BB85AE17BF0750F02F5FF3
:100A5000A885B985EA85FB85EA1BFB0BEA87FB873E
:100A6000EFCF2A3328F003FF02C0295F01C0295DC0
:100A700004FD1AC0213320F4A885B985119709F423
:100A800009C0531710F000FF01C013C020E207FF98
:100A90000BC020E3006102FF07C00B7F4A930E9456
:100AA0001D06503009F051500E941006503009F0D8
:100AB00051503150A885B985129708F0B5CF00FF85
:100AC00008C0503031F05150E0E2EA930E941D0618
:100AD000F8CF10E0E0CEAC85BD850E948D060E9467
:100AE000A10664960895FF92F82E26970E949C0610
:100AF0000E943506309719F4EFEFFFEF23C0DE01B7
:100B000016960E9446068D010E943506EE83FF83ED
:100B1000E0E0E887E987DE011A960E9446060E9417
:100B20008D06FA93EA931A930A93E5E0F4E0FA93B8
:100B3000EA93DE011A96A3DE9F01AE81BF81E0E059
:100B4000EC93F9010E94A3062A96FF900895BA93A8
:100B5000AA93E991F991A991B9916D917191671752
:100B600021F46623D1F7EE270895671BE1F3E1E056
:100B700008F4E2500895BA93AA93A991B991EE2787
:100B8000FF276D91662311F03196FBCF0895BA933C
:100B9000AA93AA27BB27E991F9910590002011F0AB
:100BA0001196FBCFFD0108950E941B020E94CE0109
:100BB000AE2E0895E1E0F0E0EC15FD0508950E94E9
:100BC000C503A4E6B0E00C943C06EA93A1E00C94C3
:100BD0008603ED91FD913196FE93EE93089510B248
:100BE000F3013496A1E0B0E00E945606A12DB0E0DA
:100BF000EA23FB2330970895EA2DF0E0E133A0E0EB
:100C0000FA0708950E947A03A3E0B0E00C943C0632
:100C1000A0E30E94660388EC90E00197F1F7089545
:100C20002A93AD85BE85EF85F88909950895E889F1
:100C3000F9893497E88BF98B0895AD85BE85EF85EA
:100C4000F88909950895A889B98914960E948D0696
:100C5000EE83FF83AE81BF810895A889B989149678
:100C60000E948D06EA87FB870895DE011C960E948C
:100C700046060E948D060895109639F0A89580EDDD
:100C800097E00197F1F71197C9F708950024AF0D88
:100C9000B01D0895F195E195F0400895EE230E2ED4
:100CA000EA2F19F0EE0F0A94E9F70895EE230E2EBD
:100CB000FD0121F0EE0FFF1F0A94E1F70895FA9F5E
:100CC000F02DEB9FF00DEA9FE02DF10D089500242B
:100CD000112490E1AA0FBB1F001C111C0E1A1F0A41
:100CE00018F40E0E1F1E01C0A1609A9599F7FD0120
:100CF000D001089504D0EBDF0EF4CCDF0895E89422
:100D0000F7FF02C0C7DF6894B7FF06C0A095B09593
:100D1000119600F8039400FA0895ED91FC91119753
:100D200008950590F491E02D08957A936A93FA93CB
:100D3000EA9308955A934A933A932A931A930A93FB
:100D400008955D814C813B812A8119810881089534
:00000001FF
